:020000040000FA
:0600000002157E02091E3C
:030013000209DA05
:03002B0002133A83
:03003300020B6855
:03003B00020A2F87
:03004B0002121A84
:030053000208534D
:03005B000210731D
:0300630002108EFA
:03006B00020B0E77
:03007B00020B3F36
:100083000208B2010020FD00020155050000000135
:10009300501B5C1B0000621B6E1B00000000741BE6
:1000A300981B9E1BA41B0000000000000000010120
:1000B3000204081020408001FFFF090D0104010024
:1000C300010000000000000006FFFFFFFFFFFF012B
:1000D300010104004A1A000000E8030000FFFF16B4
:1000E3001BE803000064006400B801A0BB0D00A07E
:1000F300BB0D00020200F8FF0705021E0401051EE6
:1001030002051E020A0A01010808010310270280E2
:100113003E0102FEFFE8030A050001FFFF010A1486
:1001230001E0C503423F1A51123FF304B53F0000FB
:10013300803E010105030101FF0F10FEFFA23A00FB
:10014300000000143900000000FF000000FF00124F
:10015300158E601D12159D7005191919801A121438
:1001630030701F121444C37003E667331919194022
:10017300071818182208080874FFF618F618F61856
:10018300F6221214446017121643702192F01216CD
:100193004C7019501720F014080808090909E7F6EC
:1001A3001819E7F61819E7F61819E7F62212164C8C
:1001B30060E6E869701F0808E62480F608E436F66E
:1001C30018547FB47F0CE654806007F6E418F618E1
:1001D300F622181822E9C6CC08C6CD08C6CE08C632
:1001E300CFC0E0E8C0E0EAC0E0EBC0E009E9F8090D
:1001F300E7FA09E7FBE6F918E6F8C3EC98ED99EEA0
:100203009AEBC2E7F5F0EFC2E795F0500E600CEB06
:10021300CFFBEACEFAE9CDF9E8CCF8EAA2E7D2E7D8
:10022300FAEB33FB13F5F0EEA2E7D2E7FEEF33FF71
:10023300C5F013A2E730E601B313C5F0C3C0E0C0B5
:10024300F07F00C39BFB605E9418600F401D146039
:100253001AD0E023F9D0E0F80203338AF0E94860CA
:1002630003D2F0E4AFF0FAF9F8803BEB30E40D8908
:10027300F0EA6003D2F0E4AFF0F9CAF8EB30E30D33
:1002830088F0EF6002D2F0AFF0E4CAC9F8EB54078C
:100293006014FBC3EA13FAE913F9E813F8EF1350F8
:1002A30002D2E0FFDBEDD0E0C0E030E739C3E49FEA
:1002B300FFF5F0EC98FC42F0ED99FD42F0EE9AFE6A
:1002C30042F0D0E0F9D0E0F8E5F0607AE923F9EE06
:1002D30020E742D8028067C3EF33FFEC33FCED33F2
:1002E300FDEE33FE80EAEC28FCED39FDEE3AFED05C
:1002F300E023F9D0E0F84002801BC3EE13FEED13B8
:10030300FDEC13FCEF135002D2E0FF08B800067FA8
:100313007F74FF802EEF3350178CF020F0026010B3
:100323000CBC000C0DBD00080EBE000408E860DF25
:10033300E933E813FFEE2313FE4F4D4C8008E954D5
:1003430080FFE4FEFDFCEE33EF33F47004FCFD7E2E
:1003530080D0E0FBD0E0FAD0E0F8D0E0CFC618CEF2
:10036300C618CDC618CCC6F92212158E70041818FB
:10037300182212159D700D74FFF61819F61819F648
:100383001819F622E7548066F612164C700F1216EF
:100393004370F014F608F608F608F680D1121643F7
:1003A300700CF608F608768008E6447F80EC121499
:1003B30047700C12143360BFE65480F6E480BB121E
:1003C3001433700519191980A5E869700C763F1864
:1003D300768018F618F6E8F922E6CDC0E018ECC0EE
:1003E300E0E633CD33CDD313F6E719FCE719193320
:1003F300CC33C3947F400ECD9D502408E65480F641
:10040300E418F6800FF4043D14501408E6447FF614
:10041300187680E418F618F6D0E0FCD0E0FD22CC84
:10042300D313CCFD18E4C6CBC0E018E4C6CAC0E0C1
:100433000808ED08C633E613F618E433C675F0036F
:10044300C3CA97CA09CB97CB199C40047D08802E59
:10045300BD000302051516B6FF050606081618C3E8
:10046300CA33CACB33CB33CA27CA09CB37CB193CE0
:10047300C37D08803E187D0820E75CC633C6CA33B7
:10048300CACB33CB33DDF1D5F0EB30E77BCA97CA68
:1004930009CB974ACB199C406F4B7025E620E0218E
:1004A3008066187D08C3CA97CA09CB97CB199CD31A
:1004B300C633C6CA33CACB33CB3350C9DDE7D5F015
:1004C300E1D3E4C636C608C636C608C636C608C66D
:1004D30036C61818188031C3CA97CA09CB97CB19E7
:1004E3009CB34097C633C6CA33CACB33CB33DD3450
:1004F300D5F02EC6A2E0C640C8CA27CA09CB371911
:100503004A70BECB3CB480B90808E63308E63360D2
:100513001F181818D0E0FAD0E0FBD0E0FCD0E0FDC3
:1005230022187D08CA27CA09CB37CB193CD3808050
:1005330013F618E4B67F11F618B6FF0EF618C604C4
:1005430070D20808768080CAF618F618F680C5C0FF
:1005530082C083120672600814601214601C802B20
:10056300EA6005EB42808023E85280801EEA600542
:10057300EB42908016E852908011EBC39420500B0D
:10058300EA6005EB42A08003E852A00205FFC082A7
:10059300C083120672600814602214603C805DE818
:1005A30052F374016A601074026A700643F720E81C
:1005B3005280EB42FD804553F7DF80F3E852F47439
:1005C300016A601074026A700643F740E85290EBC8
:1005D30042FE802853F7BF80F3EBC39420501DE8FD
:1005E30052F574016A601074026A700643F780E87A
:1005F30052A0EB42FF800553F77F80F3D083D08274
:1006030022C082C083120672600814602114603A0B
:100613008056E852F352FD74016A600A74026A70EC
:100623004743F720800353F7DFE85280803AE852CC
:10063300F452FE74016A600A74026A702B43F74035
:10064300800353F7BFE85290801EEBC394205018E9
:10065300E844E0F852F552FF74016A600D74026ACF
:10066300700643F780E852A0809253F77F80F6E943
:100673005407FC74102CF582E4341EF583E0FBF47C
:10068300F8E9C4540F540322C082C0831206726077
:10069300081460151460228034EA6005EB42808000
:1006A30003E85280EB42FD8024EA6005EB42908030
:1006B30003E85290EB42FE8014EBC39420500EEA01
:1006C3006005EB42A08003E852A0EB42FF0205FF66
:1006D3000012158E604F12159D6012E7548066F666
:1006E3001214307011121643703B090909F4F618FD
:1006F300F618F618F622121444701512164C080850
:100703000860EAE6447FF618768018E4F618F622C5
:1007130012164C60161216437012E4F608F608F629
:1007230008E65480F609090918181822EAC0E0EB14
:10073300C0E0ECC0E0EDC0E0E687F0A4FBACF0085D
:10074300E687F0A42CFCE435F0FA1809E687F0A458
:100753002C4B60027401CA35F0FCE433FB09E687D5
:10076300F0D2F7A42CCB35F0FC1908E687F0A42BC4
:10077300CC35F0FBE433FD0819E687F0D2E7A42C6F
:100783004ACB35F0CD3400FC09E687F0D2E7A42D3F
:10079300CC35F0FDE433FA0918E687F0D2F7A42C40
:1007A300CD35F0CA3400FC08E687F0D2E7D2F7A4CF
:1007B3002ACC35F07A7E20E70B0ACB33CBCD33CD71
:1007C300CC33CC33CB3350147004ED30E00ED2F184
:1007D300E4CD3DCDCC3CCC3B5005DA05C2F1EB5426
:1007E3007FC63308E63392F0FBE73309E733C39A56
:1007F300502D2B70190C0D4C4D70151806E608C3BF
:1008030033700D20F10AA2F013F6E418800B402494
:10081300E4F630F002768018F618F618F68024D342
:100823003B14501074FFA2F013F6187680E418F608
:1008330018F6800FA2F013F618E63303F618ECF659
:1008430018EDF6D0E0FDD0E0FCD0E0FBD0E0FA22DA
:10085300C0E074F1120D64A2AFE433F509D2AF85A1
:10086300A708AFA1EF5508FE74105E6006121820AA
:1008730075A1EF74085E600812182675A1F780242D
:10088300EFA2E092F0E508A2E082F05017906198A1
:10089300E0F89004C2E0C398A2D265D0335002E8D6
:1008A300F075A1FEE509A2E092AF7F02020DC3C07D
:1008B300E074F2120D64A2AFE433FED2AF9061A4F0
:1008C300E0F8759B00E59158540860087591F7129C
:1008D300186E8023E59158541060087591EF121833
:1008E300748014E591A2E092F0E8A2E082F0500750
:1008F300E0C2E0F01219BE9061A3E0F8E5E95854B4
:1009030004600E12199475E9FB906193E0A2E6402E
:10091300F2EEA2E092AF7F01020DC3C0E074F212C7
:100923000D64A2AFE433FED2AF9061A5E0F8E5BF5A
:10093300585404600675BFFB1219D680D4C3E498DB
:10094300F8E499F91209818026C3E49AFAE49BFB3F
:10095300E920E7E9120981E498F8E499F922C3E46C
:1009630098F8E499F9120981E498F8E499F9C3E451
:100973009AFAE49BFB22EB20E7CFE920E7E0B900FA
:1009830010BB0008E88AF084F8AAF022E4FBC8FA56
:1009930022EB70227B10C833C8C933C9335007C355
:1009A3009AC3DBF280069A50012ADBEAC833F4C803
:1009B300C933F4C9FA2275F008E4C833C8C933C986
:1009C30033C99AC99B5004C92AC93BD5F0ECFBC86B
:1009D30033F4C8E4C9FA22C0E0C0D0E8C0E0E9C0FB
:1009E300E0C082C083A8C1E8C0E090042FE0F8749F
:1009F300AE28F582E43403F583D0E0F090042EE0D2
:100A0300F8A3E0687006E595900431F090042FE0B8
:100A130004F0C394804002E4F0A374C6F0D083D002
:100A230082D0E0F9D0E0F8D0D0D0E032C0E0C0D03E
:100A3300E8C0E0E9C0E0C082C0839004B2E0F8A35C
:100A4300E0687008539AFBA374018022C2E9900402
:100A5300B2E0F8740128F0743228F582E43404F526
:100A630083E0F5C19004B2E0C394804002E4F080D7
:100A7300AC120ABF30F039120B048034120ABF20C3
:100A8300F01430E72B74FFFCFBFA747F8022E4FC44
:100A9300FBFA7480801AB48008BC00F2BB00EF80BC
:100AA3000F50EBF9E4C39AFAE49BFBE49CFCE49952
:100AB300C6CC18C6CB18C6CA18C6F922E4C9C608DC
:100AC300CAC608CBC6D3330308CCC63392F0C3944B
:100AD3007F402E94184019C9B90704CACBCC2250C1
:100AE30025C309CA33CACB33CBCC33CC33D9F42295
:100AF300F4600DC9CCC313CB13CBCA13CAD9F6CC3C
:100B030022E4FCFBFA2214FCFBFA22C0E074F2128A
:100B13000D64A2AFE433FED2AF9006B7E05589600F
:100B23000FE589FA7900121C709006B7E0F4528938
:100B3300C2C5EEA2E092AF7F01020DC3C0E074F222
:100B4300120D64A2AFE433FED2AF9006B8E0558A2B
:100B5300600FE58AFA7901121C709006B8E0F4522E
:100B63008AC2EB80CDC0E074F2120D64A2AFE4330D
:100B7300FED2AF9006B9E0558B600FE58BFA790290
:100B8300121C709006B9E0F4528BC2E880A40808E6
:100B930008EAC0E0EBC0E086F0E7A4FA180986F0A3
:100BA300E7A42AFA180986F0E7A42AFA180986F0B6
:100BB300E7A42AFA1986F0E7A4FBE5F02AFA190854
:100BC30086F0E7A42BFBE5F03AFA190886F0E7A4D0
:100BD3002BFBE5F03AFA18180986F0E7A4C5F02BC9
:100BE300FBE43AFA1908E7C5F0C6A426F6E5F03B9C
:100BF300FBE43AFA1886F0E7A4F6E5F00826F6E4F3
:100C03003B08F6E43A08F6D0E0FBD0E0FA22080805
:100C130008E630E711121458120C29080808C644D4
:100C230080C618181822181818E9799EC608CAC66B
:100C330008CBC608CCC6C370207996CACBCC701932
:100C4300798ECBCC70137986CC700EF9802ACA3397
:100C5300CACB33CBCC33CC331930E7F2CCCBCA334A
:100C630050147004EA30E00DE4CA3ACACB3BCBCC53
:100C73003CCC500209C3E913C6CC182313C6CB18C6
:100C8300C6CA18C6F922E4CFC0E0E4CEC0E0E4CD82
:100C9300C0E0E4CCC0E075F020E626F608E633F6C3
:100CA30008E633F608E633F6181818EC33FCED3390
:100CB300FDEE33FEEF33FFC3EC9709ED9709EE9793
:100CC30009EF97191919400FFFEC97FC09ED97FDF0
:100CD30009EE97FE191906D5F0BFECF709EDF709F0
:100CE300EEF709EFF7191919D0E0FCD0E0FDD0E0D9
:100CF300FED0E0FF222518C582C0E0E51934FFC508
:100D030083C0E0E518C3958224F810AF08858319E2
:100D13008582188008858319858218D2AFCEF0A307
:100D2300E520F0A37808E608F0A3DEFAEFF0A3E5E8
:100D33008124FAF8E608F0A3E608F0A3E608F0A396
:100D43000808E608F0A3E608F0A315811581D0E0B2
:100D5300FED0E0F8158115811581E8C0E0EEC0E012
:100D630022C0D02518C582C0E0E51934FFC583C071
:100D7300E0E518C3958224F310AF088583198582B3
:100D8300188008858319858218D2AFC8F0A3E9F0CB
:100D9300A3EAF0A3EBF0A37908E709F0A3D8FAECF0
:100DA300F0A3EDF0A3EEF0A3EFF0A3D0E0F0A3D017
:100DB300E0F0A3D0E0F0A3E520F0A3E5F0F0A32258
:100DC300851983851882E0C0E0A3E0F9A3E0FAA3C4
:100DD300E0FBA37808E0F608A3DFFAE0FCA3E0FD5C
:100DE300A3E0FEA3E0FFA3E0C0E0A3E0C0E0A3E034
:100DF300F5D0A3E0F520A3E0A3F5F010AF088583B9
:100E0300198582188008858319858218D2AFD0820C
:100E1300D083D0E0F8D0E03212162EB90003020ED0
:100E23005AE490033178B4791B8002F0A3D8FCD93B
:100E3300FA7AE47B1D90008678CD79018015E493DE
:100E4300A3AD82AE838A828B83F0A3AA82AB838D08
:100E5300828E83D8E9D9E77582E175838874071296
:100E630012977582EE758334740012129775F01021
:100E73008E1A8F1B85821F85831E85188285198391
:100E8300E0CEA3E0CF851F82851E83EBC9EAC8EDC0
:100E9300CBECCAC3E833C8E933C9EA33CAEB33CB73
:100EA300C3EA9EF51DEB9FF51CB35004AB1CAA1DB2
:100EB300EC33CCED33CDD5F0DAAE1AAF1B221215DD
:100EC3008E601C12159D601712164C700712164384
:100ED3007001D322C0D01216437006D0D0B322C300
:100EE3002233D0D0501430E0F6C3E7960809E796D2
:100EF3000809E7960809E796B32220E0D5E69708A4
:100F030009E6970809E6970809E697B322D083D044
:100F130082ECC0E0EDC0E0E493A3FCE493A3FDED19
:100F23004C600D121034EC24FFFCED34FFFD80EF18
:100F3300E493A3FCE493A3FDED4C600D12113AEC92
:100F430024FFFCED34FFFD80EFD0E0FDD0E0FCE4B6
:100F530093A3C0E0E493C0E02212158E601B121528
:100F63009D601612164C7007121643600CB322C014
:100F7300D01216437005D0D022C32233D0D05013E1
:100F830030E0EBC3E7960809E7960809E7960809F6
:100F9300E7962220E0E4E6970809E6970809E69732
:100FA3000809E69722851983851882E0A3FEE0A34A
:100FB300F5207808E0A3F608DFFAE0A3FFE0A3C07A
:100FC300E0E0A3C0E0E0A3C0E0E0A3C0E0E0A3C092
:100FD300E010AF08858218858319800885821885FB
:100FE3008319D2AFD083D08202129DD083D082E9FD
:100FF300C0E0E493A3C386F0C5F095F0F908E49349
:10100300A386F0C5F095F0700BE493A3C399400554
:10101300E9048002A3E475F002A42582F582E5F0D9
:101023003583F583D0E0F9E493A3C0E0E493C0E013
:1010330022C0E0C3E49396087401939618400FE42A
:101043009366700808740193661870007019A3A35F
:10105300C3E49396087401939618A3A3400DD0E0BC
:10106300D0E0D0E0020F4CA3A3A3A3A3A3D0E0221C
:10107300C0E074F2120D64C2D9901E2C1210A64067
:1010830005E0F9121EE07F01020DC3C0E074F21205
:101093000D64C2DC901E2E1210A64005E0F9121E4C
:1010A300E080E3E0C39400A2D265D03322740480CD
:1010B3000474028000CCC0E0EDC0E0E518C39CCC12
:1010C300AD1950011D10AF068C188D1980068C18B0
:1010D3008D19D2AF1211F9D0E0FDD0E0FC227402D9
:1010E3008000CCC0E0EDC0E0E518C39CCCAD195046
:1010F300011D10AF068C188D1980068C188D19D21E
:10110300AF1211D7D0E0FDD0E0FC2212158E60257E
:1011130012159D602012164C70030216430808082E
:10112300E76670101819E766700A1819E766700405
:101133001819E76622F422C0E0C0F088F0E4936651
:1011430070080874019366187000A8F0A3A3700BCD
:10115300D0F0D0E0D0E0D0E0020F4CA3A3D0F0D089
:10116300E022D083D082CCC0E0E493A360061212C5
:10117300591470FAE493A3600612139D1470FAD005
:10118300E0FCE493A3C0E0E493C0E022C008C3E022
:1011930096F50808A3E096420808A3E096420808DB
:1011A300A3E0964208A2D265D033E5087001D3D0FC
:1011B3000822A2E792D65002F40430F70663F0FF48
:1011C30005F0B3400384800384F40430D60563F050
:1011D300FF05F022CAC0E0E493A3C582CCC582C553
:1011E30083CDC583F0A3C582CCC582C583CDC5831A
:1011F300DAE5D0E0CA22CAC0E0E0A3C582CCC5824A
:10120300C583CDC583F0A3C582CCC582C583CDC5B7
:1012130083DAE6D0E0CA22C0E0C0D0C082C08375C2
:10122300AF009006F6E02401F0A3E03400F0D08391
:10123300D082D0D0D0E032C008C3E096F50808A32E
:10124300E096420808A3E096420808A3E096450802
:101253007001D3D00822C0E0E493A3D39C5010E4E0
:1012630093A3C39C400AD0E0D0E0D0E0021182A354
:10127300A3A3D0E0227009080808226016181818E2
:10128300C6C333C608C633C608C633C608C633C684
:10129300D5E0EA22C09FF59FE473D09F22D083D08C
:1012A30082C09FE493C0E0740193C0E0740293F59D
:1012B3009F2200C0D0251810AF08F518500C05194F
:1012C3008008F51850020519D2AFD0D0222518F5A1
:1012D3008210AF08F518400C15198008F518400264
:1012E3001519D2AF851983227404800A740380060A
:1012F300740280027401C0E0F4041212D0D0E01230
:1013030015D9226017080808C6A2E713C618C61322
:10131300C618C613C618C613C6D5E0E922BB010218
:10132300E722C082C08389828A83BB0003E08002F4
:10133300E493D083D08222C0E0C0D0E8C0E0A8A864
:10134300D2AFC2C7E8A2E792AFD0E0F8D0D0D0E0E6
:10135300326016080808C6C313C618C613C618C6D3
:1013630013C618C613C6D5E0EA22C3E0C696F6082C
:10137300A3E0C696F608A3E0C696F608A3E0C696D1
:10138300F6222518F8E43519F9222518FAE4351957
:10139300FB222518FCE43519FD22C0E0E493A36C7D
:1013A3007009D0E0D0E0D0E0021182A3A3D0E02204
:1013B300251810AF08F518400C15198008F51840CA
:1013C300021519D2AF22C3E09608A3E09608A3E062
:1013D3009608A3E096A2D265D03322E76670100880
:1013E30009E766700A0809E76670040809E76622D8
:1013F300E066701008A3E066700A08A3E066700454
:1014030008A3E06622C3E096F008A3E096F008A3E1
:10141300E096F008A3E096F022C3E49396087401E3
:1014230093960874029396087403939622181818D7
:10143300E60846087009E626087005E633F4220834
:1014430022191919E70947097009E727097005E700
:1014530033F4220922181818E4C396F608E496F622
:1014630008E496F608E496F622C3E697F60809E63A
:1014730097F60809E697F60809E697F622E056F686
:1014830008A3E056F608A3E056F608A3E056F622B2
:10149300700422600D18C6C333C608C633C6D5E030
:1014A300F41822E627F60809E637F60809E637F6C0
:1014B3000809E637F622E647F60809E647F608097B
:1014C300E647F60809E647F622E026F608A3E036E3
:1014D300F608A3E036F608A3E036F622E657F60848
:1014E30009E657F60809E657F60809E657F622E62D
:1014F30067F60809E667F60809E667F60809E66786
:10150300F622E026F008A3E036F008A3E036F00860
:10151300A3E036F022E056F008A3E056F008A3E07B
:1015230056F008A3E056F022E493F608740193F60C
:1015330008740293F608740393F622C3E09608A393
:10154300E09608A3E09608A3E09622C6F4C608C670
:10155300F4C608C6F4C608C6F4C622600D08C6A2BF
:10156300E713C618C613C6D5E0F322C3E7960809E6
:10157300E7960809E7960809E7962275D000758172
:101583003F75183175190300020E1BE6084608C3A0
:10159300134608336002E633F422E7094709C3130D
:1015A3004709336002E733F422600C08C6C313C64D
:1015B30018C613C6D5E0F422E6F008A3E6F008A3A4
:1015C300E6F008A3E6F022E0F608A3E0F608A3E0BD
:1015D300F608A3E0F622CAC0E0E6F0A308DAFAD0E0
:1015E300E0FA22E0FCA3E0FDA3E0FEA3E0FF22EA91
:1015F300F0A3EBF0A3ECF0A3EDF022E0FAA3E0FB01
:10160300A3E0FCA3E0FD22E8F0A3E9F0A3EAF0A342
:10161300EBF022ECF0A3EDF0A3EEF0A3EFF022E069
:10162300F8A3E0F9A3E0FAA3E0FB22E5C754F844EA
:1016330001F5C77901222518F582E43519F58322CE
:10164300E72719471947194722E626184618461867
:101653004622C2AF75D69F020000221212A039C8DB
:10166300051212A08DC9051212A043CA051212A0B9
:1016730042CB051212A075CC051212A0828C071260
:1016830012A0E38C071212A0608D071212A0F1972B
:10169300071212A00298071212A0A098071212A014
:1016A300AB98071212A0F87F001212A0E59C071254
:1016B30012A06399071212A07399071212A08B99B3
:1016C300071212A0F399071212A0EF95071212A0A6
:1016D3007296071212A0D896071212A0C28607129A
:1016E30012A0FD86071212A05887071212A0B08716
:1016F300071212A03688071212A08E88071212A0B2
:1017030045F0061212A053F0061212A0CCF00612F6
:1017130012A0A0F1061212A072F3061212A06F9C7F
:10172300071212A00080071212A04A80071212A00B
:10173300E080071212A06681071212A09781071298
:1017430012A0AF81071212A02382071212A03982BE
:10175300071212A04C82071212A05682071212A07F
:101763000080061212A07880061212A01F810612B2
:1017730012A00982061212A01F83061212A0DC8394
:10178300061212A05F85061212A08B85061212A004
:101793000686061212A03087061212A0A087061230
:1017A30012A01E88061212A01F8A061212A0628BB4
:1017B300061212A0298D061212A0A6B9061212A0B3
:1017C300D2B9061212A043BC061212A083BC0612A1
:1017D30012A0C3BC061212A0D7BC061212A0F0BC02
:1017E300061212A0E1BD061212A086BE061212A0B6
:1017F3009ABE061212A01491071212A03891071272
:1018030012A05191071212A08391071212A0B39153
:10181300071212A0E091071212A04292071212A01F
:101823005192071212A05B92071212A0689207123C
:1018330012A071FC061212A091FC061212A0D0FC99
:10184300061212A0EBFC061212A00AFD061212A049
:1018530070FD061212A079FD061212A0D6FD061223
:1018630012A0FAFD061212A0BBFE061212A0C8FEB9
:10187300061212A0D9FE061212A0FD99071212A099
:10188300159A071212A0419A071212A0F0BE06126F
:1018930012A04AC0061212A058C0061212A06BC0B2
:1018A300061212A080C0061212A095C0061212A042
:1018B300A8C0061212A01CC1061212A081C10612F2
:1018C30012A023C2061212A0E7C2061212A0F7C288
:1018D300061212A006C3061212A0CA98071212A07B
:1018E300EE98071212A01699071212A03E9907123A
:1018F30012A09F84071212A0C684071212A0E484C8
:10190300071212A05785071212A0EDF6061212A0B5
:1019130006F7061212A012F7061212A026F70612F5
:1019230012A044F7061212A04EF7061212A058F79F
:10193300061212A06BF7061212A0F1F7061212A0FC
:1019430066F8061212A095F8061212A0E3F8061222
:1019530012A032F9061212A04DF9061212A057F97D
:10196300061212A068F9061212A0ABF9061212A011
:101973005A9B071212A083EC051212A0ADEC0512BC
:1019830012A0CAEC051212A0DDEC051212A0F3ECB2
:10199300051212A051ED051212A089ED051212A035
:1019A3007DF1051212A0C2F2051212A0F5F2051282
:1019B30012A058F3051212A0C2F4051212A0EAF401
:1019C300051212A0FFF4051212A00FF5051212A0C2
:1019D30053F5051212A0AEF5051212A0BEF50512BD
:1019E30012A0B893071212A0D293071212A0FA936F
:1019F300071212A01394071212A03794071212A011
:101A03005594071212A06C94071212A09A9407120D
:101A130012A0B594071212A0A59B071212A0B7EC4F
:101A2300061212A0C7EC061212A0CEED061212A0E7
:101A330002EE061212A024EE061212A047EE0612C0
:101A430012A065EE061212A09FEE061212A004EF7A
:101A5300061212A046EF061212A085EF061212A07C
:101A6300B6EF061212A0EDEF061212A0787700125D
:101A730012A07478001212A09178001212A0B37809
:101A8300001212A0787A001212A0997A001212A002
:101A93004E7B001212A0157C001212A0247D0012AE
:101AA30012A0567E001212A020D9061212A075D9D8
:101AB300061212A0EFD9061212A002DA061212A021
:101AC30029DA061212A0BCDA061212A096DB06125D
:101AD30012A0EEF5051212A019F6051212A0D0F607
:101AE300051212A00EF7051212A094F7051212A008
:101AF3002EFB051212A041FD051212A02ED80212D0
:101B030012A05BD8021212A096D8021212A0B1D86A
:101B1300021212A0CED8021212A0A3D9021212A04E
:101B23009CDB021212A014DC021212A0DCE20212ED
:101B330012A0A7E4021212A011E5021212A0ACE552
:101B4300021212A076E7021212A02BE8021212A0D0
:101B530062E8021212A09BE8021212A0B2E802127B
:101B630012A0ECE8021212A0EFE8021212A042E95E
:101B7300021212A098E9021212A05DEA021212A048
:101B83000AEB021212A063ED021212A0CEEE0212B1
:101B930012A001EF021212A061EF021212A0AEEF27
:101BA300021212A0F8EF021212A091F0021212A078
:101BB30049F2021212A085F2021212A068F4021274
:101BC30012A0A0F4021212A001F6021212A084F7CE
:101BD300021212A0F8F7021212A0C7F8021212A002
:101BE300FBF8021212A03CFF051212A056FF0512C9
:101BF30012A07FFF051212A0A3FF051212A0C0FFBF
:101C0300051212A0D6FF051212A00AD5061212A0C1
:101C13005ED5061212A02ED6061212A05BD60612AD
:101C230012A088D6061212A0B2D6061212A0D6D6D9
:101C3300061212A016D7061212A0A2D7061212A0DD
:101C4300D3D7061212A0FCD7061212A029D8061267
:101C530012A047D8061212A06BD8061212A08BD876
:101C6300061212A0C1D8061212A03FC3061212A078
:101C7300E894071212A05995071212A0BB950712F8
:101C830012A096B4061212A096B5061212A0A0B620
:101C9300061212A0D8B7061212A031B8061212A06B
:101CA30070B8061212A07EB8061212A037E106120F
:101CB30012A0F2E3061212A05AE4061212A00DFDBE
:101CC300041212A012FE041212A0D6FE041212A0D5
:101CD300F0FE041212A09DFF041212A0C6FF04120C
:101CE30012A0B18F071212A0D18F071212A0E49095
:101CF300071212A0E790071212A07292071212A005
:101D0300A892071212A0C292071212A004930712FC
:101D130012A01493071212A0AE93071212A04A96B0
:101D2300061212A05496061212A08E96061212A044
:101D3300F796061212A01497061212A0B69706126F
:101D430012A0BF97061212A00498061212A02D9893
:101D5300061212A03A98061212A0AB98061212A00D
:101D63003699061212A08499061212A0C29906127D
:101D730012A0279A061212A04A9A061212A0C19A1A
:101D8300061212A0189B061212A0539B061212A051
:101D9300889B061212A09A9B061212A0AC9B0612F5
:101DA30012A0CB9B061212A0D49B061212A08F9CEA
:101DB300061212A0DB9C061212A0199D061212A095
:101DC300BCFE011212A06982071212A09F820712A1
:101DD30012A0E782071212A04084071212A0829A6F
:101DE300071212A07795051212A09B96051212A056
:101DF300D596051212A07F98051212A0A998051274
:101E030012A01E9B051212A05E9B051212A0F49C49
:101E1300051212A0919D051212A0E39D051212A0B6
:101E2300869E051212A0BE9E051212A0009F0512E7
:101E330012A06FA0051212A0BDA1051212A0EEA35D
:101E4300051212A01CA4051212A043A4051212A08D
:101E53004CA4051212A09CA4051212A02EA50512D3
:101E630012A05DA8051212A0E0A8051212A0A79C5B
:101E7300071212A0BD9C071212A033DD061212A096
:101E830049DD061212A0EDDD061212A02CDE0612A9
:101E930012A049DE061212A07ADE061212A0C7DED5
:101EA300061212A0FADE061212A035DF061212A0E5
:101EB3002AE1061212A070A3061212A001A40612B0
:101EC30012A074A5061212A04DA6061212A0ECA62B
:101ED300061212A0C18A071212A0328B071212A097
:101EE3002DA9051212A0F3A9051212A03DAA0512ED
:101EF30012A079AA051212A0F3AB051212A025AC09
:101F0300051212A050AD051212A07DAD051212A04C
:101F130087AE051212A0C8AE051212A02FAF05128C
:101F230012A07AB0051212A0CFB0051212A035B1DB
:101F3300051212A009AF061212A030AF061212A0AA
:101F430067B1061212A07AB1061212A0CFB106121F
:101F530012A015B3061212A096B3061212A0F196A0
:101F6300071212A05097071212A08E97071212A001
:101F7300CF97071212A01AFA021212A052FA0212F3
:101F830012A034FB021212A0DEFC021212A098FD72
:101F9300021212A0D5FE021212A0459D061212A033
:101FA300789D061212A09B9E061212A041A0061253
:101FB30012A05AA0061212A0FDA0061212A055A14B
:101FC300061212A08CA2061212A007FF061212A07C
:101FD30053FF061212A0F89C071212A000800412ED
:101FE30012A00C80041212A06E80041212A078803A
:101FF300041212A00B81041212A04781041212A032
:102003000782041212A01482041212A0678204121F
:1020130012A0B482041212A05683041212A08C835D
:10202300041212A00984041212A0A985041212A09A
:102033007D87041212A04A88041212A0CB890412CD
:1020430012A0308B041212A0C58B041212A0F88CBC
:10205300041212A0EC8D041212A0258F041212A0F8
:10206300BB93041212A0A894041212A04095041268
:1020730012A06595041212A08A95041212A022964A
:10208300041212A03896041212A05A96041212A037
:10209300C096041212A0DF96041212A0089704122D
:1020A30012A02898041212A0FE98041212A0739A88
:1020B300041212A0949A041212A0159B041212A0E7
:1020C300BB9B041212A0039C041212A0749C041262
:1020D30012A0009D041212A0649D041212A0C49DBC
:1020E300041212A0739E041212A0DF9E041212A007
:1020F300129F041212A0909F041212A0ECA00412CB
:1021030012A05CA1041212A0EEA1041212A051A30A
:10211300041212A0D8A3041212A03DA4041212A008
:102123006BA6041212A0F7A7041212A007A80412A8
:1021330012A03BA8041212A0A9A8041212A0E4A89A
:10214300041212A046A9041212A0DBA9041212A0C1
:10215300B6AB041212A072AD041212A07CAE04122C
:1021630012A079B2041212A046B3041212A05EB4F4
:10217300041212A008B6041212A015E9061212A046
:1021830085E9061212A093E9061212A0A1EA06122B
:1021930012A0EFF0011212A0A6F1011212A0ADF2EB
:1021A300011212A02BF3011212A06DF4011212A05E
:1021B3008EF4011212A039F5011212A0E4F50112F6
:1021C30012A0C4F9011212A0E0FB011212A047FDF4
:1021D300011212A0E99B071212A01CB8041212A04C
:1021E30077B8041212A001B9041212A072BA041231
:1021F30012A04ABB041212A033BC041212A04ABCA0
:10220300041212A09CBC041212A000BD041212A05E
:1022130041BD041212A054BD041212A0AABD04129F
:1022230012A003BE041212A01BBE041212A0CBC044
:10223300041212A060C1041212A08AC1041212A0D7
:10224300D3C1041212A0C3C3041212A02DC40412DA
:1022530012A001C5041212A044C5041212A05EC547
:10226300041212A0A5C5041212A0C5C5041212A01F
:102273006FC6041212A06DC7041212A0C7C70412BE
:1022830012A018C8041212A023C9041212A0C7CBAB
:10229300041212A0FDCB041212A06FCC041212A0E0
:1022A30094CC041212A00ECD041212A0D7CD0412A6
:1022B30012A014CE041212A076CE041212A037CFAD
:1022C300041212A03ACF041212A044CF041212A097
:1022D3004ECF041212A061CF041212A0DDCF04125C
:1022E30012A006D0041212A019D0041212A045D0D5
:1022F300041212A06CD0041212A090D0041212A0E7
:10230300CBD0041212A03DD1041212A065D1041245
:1023130012A0A6D1041212A0DBD1041212A0FBD189
:10232300041212A038D2041212A06FD2041212A007
:1023330079D3041212A0ACD4041212A0C2D4041292
:1023430012A0FA9A071212A0129B071212A0CEC76C
:10235300061212A00CC8061212A098C8061212A0E8
:10236300A3C9061212A0BFCB061212A04A8F0612EF
:1023730012A0998F061212A03991061212A0F4929C
:10238300061212A03693061212A01F94061212A070
:102393002995061212A04B95061212A095950612C6
:1023A30012A01696061212A0BDD6031212A0E0D6F2
:1023B300031212A0D3D7031212A01CD8031212A027
:1023C30074D8031212A0D0D8031212A01CD903127E
:1023D30012A092D9031212A01EDA031212A093DAEA
:1023E300031212A0D6DA031212A0A7DE031212A060
:1023F300F6E0031212A030E1031212A0B4E10312BB
:1024030012A0E5E4031212A05AE5031212A0EAE6B1
:10241300031212A0F2E7031212A008E9031212A09A
:102423007EE9031212A045EA031212A0AEEA0312D8
:1024330012A0B1EA031212A085EB031212A0C1ECA1
:10244300031212A081EE031212A07CF0031212A059
:1024530087F1031212A023F2031212A06EF30312E8
:1024630012A074F4031212A0D7F4031212A074F58D
:10247300031212A00080051212A0A080051212A060
:102483000A81051212A0B181051212A01082051251
:1024930012A0BC82051212A06585051212A09DF838
:1024A300031212A00F87051212A0EC88051212A0C6
:1024B3009189051212A0348A051212A0938A05127B
:1024C30012A04C8B051212A0CB8C051212A0888E81
:1024D300051212A00990051212A06391051212A011
:1024E3007392051212A01993051212A038940512C3
:1024F30012A0F4D4041212A06CD5041212A0B4D505
:10250300041212A0F8D5041212A041D6041212A08C
:102513008BD6041212A0C0D6041212A03ED7041206
:1025230012A098D7041212A0F1D8041212A070D9E5
:10253300041212A057C5051212A0A9DA041212A0A0
:10254300B5DB041212A0C6DB041212A0DEDB0412F8
:1025530012A0FEDC041212A01BDD041212A0EEDD99
:10256300041212A012DE041212A029DE041212A019
:102573004ADE041212A06CDE041212A05EDF041203
:1025830012A0B6DF041212A02CE1041212A08AE1F9
:10259300041212A0A9E1041212A0DBE2041212A099
:1025A30058E3041212A0C5E3041212A005E40412B6
:1025B30012A067E4041212A017E5041212A0E9E6C0
:1025C300041212A0D4E7041212A0CEE8041212A03F
:1025D300D4E9041212A0F0EA041212A0FEEA0412D3
:1025E30012A0D7EB041212A077EC041212A0BBECDA
:1025F300041212A0D0EC041212A0E1ED041212A0F6
:1026030084EE041212A0DCEE041212A0B6F306123A
:1026130012A05EF5061212A01BF6061212A070F6A7
:10262300061212A03AE5061212A058E5061212A0ED
:102633009CE5061212A0C2E5061212A0E8E50612F6
:1026430012A000E6061212A018E6061212A030E647
:10265300061212A093E6061212A0D5E6061212A0E5
:10266300F7E7061212A000E8061212A009E8061204
:1026730012A012E8061212A01CE8061212A0B0D093
:10268300061212A090D4061212A09ED4061212A013
:10269300A3D4061212A04E89071212A0977F00122C
:1026A30012A0D3FF031212A0258E071212A0C79CFB
:1026B300071212A00080021212A05780021212A069
:1026C300C380021212A04F81021212A005820212CD
:1026D30012A04D82021212A06682021212A08982F7
:1026E300021212A0AB82021212A0E982021212A0FD
:1026F3003883021212A06383021212A0C183021252
:1027030012A06884021212A01085021212A08C85F6
:10271300021212A05986021212A0A086021212A05F
:10272300EC86021212A07487021212A0AD87021265
:1027330012A00388021212A01F88021212A04E8850
:10274300021212A05A8A021212A0888B021212A03D
:10275300B48B021212A0E88B021212A0098C02128F
:1027630012A0188C021212A0238C021212A0D28C77
:10277300021212A0428D021212A0CD8D021212A0DB
:10278300D58D021212A0428E021212A07E8E021268
:1027930012A0448F021212A01790021212A06C9082
:1027A300021212A00B91021212A06591021212A042
:1027B300AA91021212A04394021212A08695021249
:1027C30012A07098021212A05499021212A0389A01
:1027D300021212A0499A021212A0BB9A021212A06C
:1027E300529B021212A0B79B021212A0A79C0212C4
:1027F30012A0CC9C021212A0EA9C021212A0069D07
:10280300021212A0799D021212A0889D021212A038
:10281300109E021212A00D9F021212A01A9F021202
:1028230012A0239F021212A005A1021212A027A236
:10283300021212A037A2021212A065A3021212A062
:10284300E4A3021212A0FFA4021212A03BA50212DB
:1028530012A015A7021212A0D2AA021212A0E6AA6F
:10286300021212A0F0AA021212A0FAAA021212A0D5
:1028730004AB021212A01DAB021212A027AB02126C
:1028830012A094AB021212A09FAB021212A0C7AB0C
:10289300021212A0D2AB021212A037AC021212A083
:1028A30042AC021212A066AC021212A08AAC02124F
:1028B30012A0FCAC021212A045AD021212A061AD2F
:1028C300021212A0D2AD021212A01EAE021212A068
:1028D30067AE021212A0A5AE021212A026AF021218
:1028E30012A0CDAF021212A09CB1021212A001B22B
:1028F300021212A02FB3021212A055B3021212A099
:102903009DB4021212A0D7B7021212A0D5B90212B7
:1029130012A0A0BB021212A039BC021212A03ABE2E
:10292300021212A0EFBE021212A028BF021212A0BE
:102933008EBF021212A098BF021212A0C1C10212CE
:1029430012A000C3021212A057C3021212A002C4A3
:10295300021212A0B2C5021212A0FFC6021212A0E6
:102963001FC7021212A074C7021212A075C8021266
:1029730012A09DC8021212A0FCC8021212A0F4C930
:10298300021212A06BCA021212A07ECB021212A074
:10299300ECCB021212A0EBCC021212A045CF021212
:1029A30012A06ECF021212A0D4D0021212A056D2DD
:1029B300021212A0ADD2021212A05BD3021212A015
:1029C30000D4021212A059D4021212A017D5021277
:1029D30012A0A9D5021212A008D6021212A04AD63A
:1029E300021212A07BD6021212A0D2D7021212A098
:1029F3000080031212A03280031212A06B80031214
:102A030012A02982031212A0FF82031212A05E8376
:102A1300031212A07484031212A0C084031212A022
:102A23004E87031212A0288A031212A06F8B03127F
:102A330012A0078C031212A0138C031212A05C8C39
:102A4300031212A09E8D031212A0948E031212A0E1
:102A5300BE8E031212A0148F031212A06D8F0312E5
:102A630012A0E08F031212A01692031212A09893E1
:102A7300031212A08394031212A0CD95031212A085
:102A83000598031212A0029B031212A0119B0312BA
:102A930012A0A59B031212A0509C031212A0939C98
:102AA300031212A0DC9C031212A02C9D031212A08D
:102AB300909D031212A0029E031212A01E9E0312E7
:102AC30012A04D9E031212A08C9E031212A0879F88
:102AD300031212A036A0031212A0B3A2031212A073
:102AE300E5A3031212A0BDA4031212A03FA5031273
:102AF30012A074A9031212A0A3A9031212A0FEA983
:102B0300031212A031AA031212A0A9AA031212A03F
:102B1300DCAA031212A03DAB031212A08DAB031269
:102B230012A05AAC031212A013AD031212A0D7AD18
:102B3300031212A051B0031212A0B3B1031212A0D8
:102B430004B3031212A028B4031212A02BB403126D
:102B530012A05AB4031212A052B6031212A011B754
:102B6300031212A040B7031212A05EB8031212A000
:102B730026B9031212A0E4BA031212A016BB031261
:102B830012A058BB031212A057BC031212A0CABC56
:102B9300031212A0F3BE031212A052BF031212A01B
:102BA300A6BF031212A0D5C1031212A0B8C203120A
:102BB30012A074C3031212A088C3031212A09CC3F1
:102BC300031212A0C9C3031212A0F9C3031212A065
:102BD300B4C5031212A0C6C6031212A01BC7031268
:102BE30012A064C7031212A08BC7031212A053C80A
:102BF300031212A0F9C8031212A07FCA031212A073
:102C0300C6CA031212A038CB031212A08DCC031232
:102C130012A036CD031212A06ACD031212A082CDE8
:102C2300031212A025CE031212A0A1D0031212A0E8
:102C330049D2031212A067D2031212A085D2031243
:102C430012A051D3031212A09FD6031212A06B83BA
:102C5300011212A0A383011212A0A388011212A0D1
:102C6300E988011212A01F8A011212A0848A01129C
:102C730012A0F98B011212A0038F011212A02C9043
:102C8300011212A03F9A011212A0CF9A011212A0B0
:102C9300B99D011212A0C69E011212A0299F011212
:102CA30012A071A0011212A0DFA2011212A071A43E
:102CB300011212A0FEA4011212A01DA6011212A05D
:102CC300AAA6011212A0B4A6011212A0DCA6011238
:102CD30012A07CA7011212A067A8011212A034A9A6
:102CE300011212A051A9011212A07AA9011212A075
:102CF300A7A9011212A0EEAB011212A0BDAC0112E2
:102D030012A0FCAC011212A07EAD011212A01FAEE4
:102D1300011212A051AE011212A098AE011212A01C
:102D2300CBAE011212A00FAF011212A05EAF0112BF
:102D330012A063AF011212A0BFAF011212A003B021
:102D4300011212A0DDB0011212A042B1011212A0B1
:102D5300A8B1011212A023B2011212A08BB5011265
:102D630012A08EB6011212A00CB8011212A022BB3F
:102D7300011212A0C4BB011212A00DBE011212A0B7
:102D8300C8BE011212A007BF011212A0DFC00112B8
:102D930012A0FCC0011212A005C1011212A00EC1A3
:102DA300011212A019C1011212A038C1011212A0FE
:102DB300DCC2011212A039C3011212A043C30112D3
:102DC30012A04DC3011212A0ACC3011212A0F6C38C
:102DD300011212A0F7C4011212A04EC5011212A0D3
:102DE3005FC6011212A0A8C6011212A062C7011287
:102DF30012A079C8011212A04EC9011212A095CADD
:102E0300011212A099CB011212A092CC011212A0AE
:102E1300AACC011212A0E1CC011212A0EBCC011238
:102E230012A0F5CC011212A000CD011212A01ECDEA
:102E3300011212A066CD011212A0C4CD011212A07C
:102E4300EBCD011212A0FDCD011212A0B2CE0112E0
:102E530012A0EBCE011212A00DD0011212A060D06D
:102E6300011212A046D1011212A06DD1011212A0BB
:102E7300DDD1011212A059D2011212A0B5D3011251
:102E830012A0DCD4011212A09ED5011212A06CD69E
:102E9300011212A02AD7011212A012D8011212A0F5
:102EA300BCD8011212A024D9011212A0D9D901123F
:102EB30012A035DA011212A08DDA011212A053DB2F
:102EC300011212A076DB011212A031DC011212A052
:102ED30053DC011212A0B4DC011212A0E4DE0112D1
:102EE30012A0DDDF011212A089E0011212A0AAE2F2
:102EF300011212A0F3E2011212A03EE3011212A08A
:102F03009AE3011212A0F8E3011212A01CE40112C9
:102F130012A040E4011212A075E4011212A09DE474
:102F2300011212A0E2E4011212A036E5011212A06E
:102F33008FE5011212A089E6011212A027E80112FF
:102F430012A06CE8011212A095E8011212A01EE96A
:102F5300011212A091E9011212A09FE9011212A01D
:102F6300C3E9011212A019EA011212A034EA0112F4
:102F730012A0EFEA011212A01BEB011212A05EEBEA
:102F8300011212A0C1EB011212A0CFED011212A087
:102F9300FBED011212A0B6EE011212A09AEF01127C
:102FA30012A02EF0011212A026D8051212A05ED88C
:102FB300051212A07FD8051212A0C1D8051212A0C3
:102FC30025D9051212A02FD9051212A03FD9051237
:102FD30012A076D9051212A01FDD051212A0E7DE9A
:102FE300051212A0CBE0051212A06DE1051212A08A
:102FF300F7E1051212A0BF3D001212A0683E0012B5
:1030030012A0473F001212A05340001212A07340B7
:10301300001212A09541001212A04543001212A003
:10302300B243001212A08344001212A08945001279
:1030330012A00146001212A03C46001212A09546AF
:10304300001212A0D046001212A01947001212A0BB
:10305300AD47001212A04348001212A018490012F3
:1030630012A0EB49001212A0794A001212A09F4A43
:10307300001212A0CC4A001212A0FD4A001212A0A4
:10308300CA4B001212A0DA4B001212A02D4C0012F0
:1030930012A03A4C001212A0474C001212A0504C3E
:1030A300001212A0B44C001212A0124D001212A072
:1030B3005D4D001212A0784D001212A09F4D001218
:1030C30012A0BC4D001212A0C84D001212A0594FFD
:1030D300001212A0724F001212A0EE4F001212A0A3
:1030E3000150001212A01150001212A0B55000128C
:1030F30012A02152001212A03453001212A0D45372
:10310300001212A0DE53001212A05D54001212A08E
:103113006E54001212A0AD54001212A0DB54001220
:1031230012A0A855001212A0FF55001212A0385683
:10313300001212A08E56001212A0AC56001212A05A
:10314300FA56001212A0C557001212A0135800120B
:1031530012A06058001212A0E358001212A00D59D9
:10316300001212A04359001212A05259001212A0C9
:10317300B159001212A0295A001212A06A5A001261
:1031830012A0BA5A001212A0E55A001212A0FF5A56
:10319300001212A0195B001212A0EE5B001212A023
:1031A300F85B001212A0335C001212A0435C001201
:1031B30012A0945C001212A0A85C001212A0CA5DB7
:1031C300001212A0DF5D001212A0725E001212A0A4
:1031D300E65E001212A08B5F001212A0965F00122F
:1031E30012A0F960001212A01561001212A0616111
:1031F300001212A0CF61001212A00162001212A0ED
:103203001B62001212A07B62001212A01A6300124A
:1032130012A06563001212A0B865001212A05066D6
:10322300001212A0C766001212A02469001212A095
:103233003C69001212A03F69001212A04B690012F0
:1032430012A05F69001212A06769001212A09E69A2
:10325300001212A0926A001212A01C6B001212A09C
:103263009E6B001212A01E6C001212A0F56C0012CD
:1032730012A0176D001212A0B06D001212A00D6EF5
:10328300001212A0106E001212A07F6E001212A084
:10329300CB6F001212A0DE70001212A0697100122F
:1032A30012A07C72001212A04373001212A0747356
:1032B300001212A09A73001212A0A373001212A09C
:1032C300D273001212A08274001212A0327500127F
:1032D30012A0A575001212A04876001212A0BB76A8
:1032E300001212A0FA76001212A04377001212A065
:1032F30052F8031212A0BCF7031212A02DF6031208
:1033030012A0C2FB041212A055FA041212A081F9F2
:10331300041212A06AF7041212A0ADF5041212A04F
:1033230024F3041212A0A9F2041212A052F10412FF
:1033330012A006F0041212A083C4051212A083C3C4
:10334300051212A075EF041212A07EFA061212A043
:10335300A4C2051212A09EAE061212A05DFA0612B6
:1033630012A01AFA061212A0B6F9061212A0CBC1C5
:10337300051212A0F1C0051212A027C0051212A057
:1033830096BE051212A05FBE051212A031BE051231
:1033930012A0E5BD051212A04EBD051212A0BEBCBF
:1033A300051212A098BC051212A04DBC051212A062
:1033B30017BC051212A09ABB051212A035BB051249
:1033C30012A0E4BA051212A00CBA051212A07CB91D
:1033D300051212A030B9051212A0ABB8051212A043
:1033E30066B8051212A04AB8051212A0FFAD061264
:1033F30012A0F2B6051212A03DAA061212A062A9EB
:10340300061212A0489C071212A02D9C071212A0AC
:1034130070FE031212A00FFD031212A0A6FC0312EA
:1034230012A03DFC031212A0C4B6051212A091B65D
:10343300051212A015B6051212A091CE061212A003
:1034430036FB031212A084CD061212A0BCCC0612C6
:1034530012A04DCC061212A0DBD7051212A073FAEC
:10346300031212A082D7051212A087DA041212A047
:103473004DD7051212A018D7051212A0E4D60512D3
:1034830012A077D6051212A05FD6051212A03AD663
:10349300051212A013D3051212A0E6D0051212A032
:1034A300EDCE051212A079CE051212A02ACE051276
:1034B30012A0E4CD051212A086CD051212A0C2E817
:1034C300051212A0BAF9031212A03EE8051212A0C7
:1034D30053E7051212A0E2E5051212A092E30512CA
:1034E30012A0A6E2051212A08B860500000080FB45
:1034F300E473000000002001678300000100200145
:10350300678300000200200168830000030020019C
:103513006983000004004201468000000500420167
:103523005780000006004201798000000700200157
:1035330084800000004042017980000010004201B5
:1035430068800000110020018607000012001003AC
:103553000F1E0600000010110000080000002033B9
:1035630000000C005500393300000C001C004233EE
:103573000000120055002001000014000E0042223A
:103583000000050B000021010000050B01002101D3
:103593000000050B000123010000050B01012301BD
:1035A3000000050B020123010000050B03012301A9
:1035B3000000050B040121010000050B0501210199
:1035C3000000050B060121010000050B0701210185
:1035D3000000050B080121010000050B0901210171
:1035E3000000050B0A0121010000050B0B0121015D
:1035F3000000050B0C0121010000050B0D01210149
:103603000000050B0E0121010000050B0F01210134
:103613000000050B100121010000050B1101210120
:103623000000050B120121010000050B130121010C
:103633000000050B140121010000050B15012101F8
:103643000000050B160121010000050B17012101E4
:103653000000050B180121010000050B19012101D0
:103663000000050B1A0121010000050B1B012101BC
:103673000000050B1C0120010000050B1D012801A2
:1036830000008F000100B01B870001007E1E350083
:103693000400421E25000200461E26000200481EAA
:1036A300270002004A1E28000100541E29000100C1
:1036B300551E84000400561E860001005A1E2A006F
:1036C30001005B1E2B0001005C1E2C000100601E2C
:1036D3002D000800981B2E000100611E2F00010021
:1036E300621E30000100631E31000100641E3200BF
:1036F3000100A01B33000100A11B34000100651E63
:1037030036000100A21B38000100661E39000100CB
:103713005F1E830002007C1E63000100AD1B64007A
:1037230001005D1E650001005E1E6D000100AE1B01
:1037330071000800901B660001007B1E430001001E
:103743006C1E440002006D1E450001006F1E460002
:103753000200701E47000800A51B48000100721EEE
:103763004B000100731E040001007F1EA100010035
:10377300821E37000100811E88000100801E3C006C
:103783000100A31B3D000100671E49000200741ED7
:1037930067000100AF1B4D000200761E4E000100C2
:1037A300781E4F000200791E3E0001006B1E51007F
:1037B3000100681E52000100691E530001006A1EC9
:1037C30054000100A41B0000000000000001363675
:1037D30001010001020100010301000104010606C9
:1037E30005020000070100340801000F090401016C
:1037F3000D0100FF0E08000017020000190100FF71
:103803001A0100011B0100FE1C0100081D0200003B
:103813001F01000120010001210200002301000F0C
:10382300240200002601000127010008280200FFEE
:103833002A0100072B0102402C0100002D01000189
:103843002E0100012F0100FF30010B1D3108000084
:103853003A0100083B01000F3C0100013D0100FF5C
:103863003E04000042040000460400004A04000035
:103873004E04000052040000560400005A040000E5
:103883000000210100010021020000012366000164
:103893000123670002012368000301236900040177
:1038A300216A000501216B000601212C010701217A
:1038B3002D010801212E010901212F010A012130C7
:1038C300010B012131010C0121C8000D0121C900A7
:1038D3000E0121CA000F0121CB00100121CC0011E0
:1038E3000121CD00120121CE001301213201140167
:1038F300213301150121CF001601213401170121C4
:10390300D000180121D100190121D2001A0121D3BD
:1039130000010371030103010301030103010322F6
:103923000302030103100300030003000300030069
:103933000300030003420300032403060300030000
:1039430003040312032503230325032303040304AE
:1039530003000300030003440300030003230300E5
:1039630003650321003503810300030503000300FE
:1039730003000300032503230303027102300160E4
:1039830002110270020102020202028002100261AD
:10399300023A0041006302730272026202430200B0
:1039A30002130238000002000204021202000200A5
:1039B300020002000204020402370037003C024402
:1039C3000200023900000200026502000235028192
:1039D3000200020502820283020002010171010159
:1039E30001010111010101310101010101800110F6
:1039F3000161013B00140063017301720162014321
:103A0300010001130106013D01350004011201000B
:103A13000100010001000104010401330133013CF1
:103A23000144013201360000010001650100013546
:103A3300008101000105018201830100010304717A
:103A43000402046004110470040204020401040269
:103A53000410046104000414046304730472046214
:103A630004430400041304060400040004040412C1
:103A73000400040004000400045104640000040072
:103A8300040004440400040004000400046504006A
:103A93000435048104640005040004830400040362
:103AA30000710030016000110070003102200350EA
:103AB30004800010006100000014006300730072B2
:103AC3000062004300000013000600000000000431
:103AD3000012000000000000000000040004003792
:103AE3000037003C024400000000000000000065B5
:103AF3000000003500810000000500000083000085
:103B03000036000100060000000F00000000000066
:103B13000000000000000003FFFF00000403FFFF9C
:103B23000000FFFF0FF4010005C40403200001009F
:103B3300000B000000000000000003010F00000064
:103B43000000000000000000000000000000000072
:103B5300000000000000000000000000000000F072
:103B6300204A21F620FA1FFC205021FC205C210270
:103B730021FA1FFC2050210821FA1F0E21FA1F14DD
:103B830021FA1F1A21FA1F2021FA1F2621FA1F2CBE
:103B93002162213221FA1F00000000000000000012
:103BA300000000382174213E21FA1F382174213E80
:103BB30021FA1F2C2162214421FA1F0000922413B1
:103BC300003E241F0044241F804A24010092240243
:103BD30000C6230300CC230400D2230500D8230608
:103BE30000E423300002243100FC2332000E24338E
:103BF30000142435001A243400202436002624110E
:103C0300003224140038241500F623FFFF00000AB5
:103C13000000000200000004000000080000001083
:103C230000000020000000400000008000000000B1
:103C33000100000002000000040000000800000072
:103C43001000000020000000400000018A2C06B490
:103C53002C08AE2C0BCC2C10A22902902C05A22CE4
:103C630007962C0C722C0D7E2C649E27FF000007F8
:103C7300ECFDFDFDECDCDCCCBCACAC9C9C8C7C7C1E
:103C83006C6C5C5C5C4C4C3C3C2C2C1C1C03EAF5C3
:103C9300E5D5D5C5B5A595958585757565655555E1
:103CA300454535352525151505000000040600009A
:103CB3000406000104060002040600420408000092
:103CC3000400160F00000B150B020002220F330035
:103CD300000E5A6967426565416C6C69616E636584
:103CE300303901030507090B0D0F00020406080A0A
:103CF3000C0D00011916181616182303003030177F
:103D0300181921301B1D1F30303016181920231AA3
:103D13001C1E3000034A49434E181A250502003978
:103D23003D3F373C3C362C442D0C0E020B040B0A52
:103D33000708000F020402010101010902E8030060
:103D43000000BE040AE8030E00000000007F001E0E
:103D53001E0503FF040403100A0010080C280400C6
:103D6300090903010C05081532060C08E004124585
:103D7300EFA2E792AF22E4F0A3F0A3F022A3123D57
:103D830079A3F0227F0C020FA8E0F508E4F509F50A
:103D93000AF50B227401F09004DAE0640F2274092F
:103DA3001212B57F04020FA8A3A3E024F5C3941352
:103DB300229004FA1268DF7A147B0022C082C08347
:103DC300901CCC7456F0A37430F0A37468F0A37401
:103DD30030F0901CD0743EF0A37430F0A37438F02C
:103DE300A37430F0A37474F0A37430F0A3747AF066
:103DF300A37430F0A3746EF0A37430F0A37426F0B0
:103E0300A37430F0901CDC744AF0A37430F0A374F4
:103E130050F0A37430F0A37444F0A37430F0A3748F
:103E230080F0A37430F0901CED125E6C600612609B
:103E3300D6121DD8901CEA1255987408F0A3E4F02A
:103E4300A3F0901D8DF0901CEFF07C0BFDF97AF040
:103E53007B1C121D307C0B7D0079007AFB7B1C12CE
:103E63001D300255A174F7120CF874F71213B3EA5C
:103E7300FEEBFF1253BF7405123F357403F0EE24BB
:103E830002FAE43F123F0F242DFCE43FFD8C828DA8
:103E93008312404D123F1E600812479774FFF0A330
:103EA300F0EE242BE43F1C1CFD8C828D83A3E0C029
:103EB300E08A828B831253D0D0E0123F1E8882891E
:103EC30083125BC824031266A9121F7074081216AA
:103ED300397403F09004EF1210B47402121395793D
:103EE30003EEFAEFFB12321274021212B5E9F5086F
:103EF3007007EEFAEFFB1230F8A90874090247A71E
:103F0300F582E43FF583127314125BBDFB8A828B47
:103F130083123F2DE8F0A3E9F0EE221268FD123F71
:103F23002DE8F0A3E9126E79E0221240188A828B01
:103F33008322F0A3E4F0123F3D22EE240DF582E448
:103F43003FF5832274F1120CF8EAFEEBFF8C088D27
:103F530009890A1240228A828B83124018740F1235
:103F6300163912403BE824FF18E934FFF9888289A7
:103F730083E50A12402D9004F412402A9004F312B0
:103F8300402A741112163912403BEE2404FCE43F1C
:103F9300FD880B8A828B83E0F50C8C828D83E02570
:103FA3000CC3950B1268F9E8F0A3E912532CA3A3F1
:103FB300A3A3A3A3A3A3E064037008125688F0A3EA
:103FC300E4800312432E123F387409F0750CF07528
:103FD3000D1C750E00780C1212EF124322121D24D1
:103FE30074031212B5750CFF750DFF780C1212F3E2
:103FF300AC08AD097903EEFAEFFB12321274021228
:1040030012B5E9F5087007EEFAEFFB1230F8A908CC
:104013007F07020FA8E024FFF8A3E034FFF922EEA4
:104023002402FAE43FFB2212404D12403122F0E811
:1040330024FF18E934FFF922E0F50CA312404D12D6
:10404300403188828983E50CF022E08882898322CB
:10405300C082C083901D0CE0C394084004740780A1
:1040630001E08A828B83F033333354F8F90255A18C
:1040730074F0120CF8EAFEEBFF890C8C0E8D0F75B1
:104083000A00A2AFE433F50BC2AF901D06803F12C6
:10409300415B503712416C64037030EE24F9FEEF3C
:1040A30034FFFF850882850983A3A3E02405FCA3CD
:1040B300E03400FDEEFAEFFB121F70EE24FF1EEF5B
:1040C30034FFFF7410250AF50A150C1252F9127306
:1040D30010E50C6006E508450970B4E50BA2E09213
:1040E300AFA2AFE433F50BC2AF901D06802C2402C0
:1040F300FAE43509FB8A828B831268E82406F58289
:10410300E438F5831241798A828B83124161A3A338
:10411300124179050A150C1252F912530E6022123C
:10412300416C640270F112415BE50840C112445CCA
:10413300A2E550E3850E82850F837401F0E50C70D0
:10414300D6E50BA2E092AF8E828F83E50AF0EE24D0
:10415300FFFAEF34FFFB8035124467A2E6221241D7
:104163006522126CDDA3A3A322850882850983122D
:104173006CD712631122E08E828F83F0EE24FF1E30
:10418300EF34FFFF221232DE74041212B57F0802ED
:104193000FA874EC120CF874F51213B389138A1276
:1041A3008B0F851882851983E4F00412138D123066
:1041B30008E9F89004D9E0292434F508FA7B0012C1
:1041C3001D428A0A8B0BAE0AAF0BEE4F70030243FC
:1041D30016EE2402F50AE43FF50BA808EE28F8E4EE
:1041E3003FF9850A82850B83123F172404F510E4F7
:1041F3003FF511851082F583E4F09004D9E0FCF8D3
:10420300C3E498F895E0F9850A82850B83E028F5E5
:1042130008A3E039F5099004D71265A1750E00785B
:104223000C1212EF7D00AA08AB09121D24740312AD
:1042330012B5AC18AD197401121639E0F9E508246A
:10424300FFFAE50934FFFB12300E8A828B83E4F018
:10425300EA24FFF508EB34FFF509E50FC454F0F940
:10426300901D8EE0C4333354C0F89004D3E0A2E031
:10427300E43313134849440F124336E512C454F090
:104283004513850882850983F0A808850A82850B72
:1042930083E0FA851082851183E02AC398F0850AAA
:1042A30082850B83E8F0A3E509F012432E123F3811
:1042B300E4F0740A121639E4F07508FB75091CF56D
:1042C3000A78081212EF124322121D2474031212E9
:1042D300B5851882851983E06009EE240E125455C2
:1042E3004408F01231FAE9F9E4F508F509780812FF
:1042F30012F37404121395EEFAEFFB1232127402E6
:104303001212B5E97006EEFAEFFB800BEEFAEFFB43
:10431300121D487A007B00740B1212B5023D877C94
:104323000B7D00EE2418FAE43FFB221253C3E4F0A2
:10433300A322E085088285098312434022F0126597
:10434300752274F3120CF88A0A8B0BA2AFE433F5CF
:104353000CC2AF750800750900901D06802C12452C
:10436300835024850A82850B83A3A312773D8E8213
:104373008F83A3A31260D9123200E9600A1243A902
:10438300C2E6F08E088F0912457812483170CFE5E6
:104393000845096006124463D2E6F0E50CA2E092F8
:1043A300AF7F05020FA81243AD2212658EE022747F
:1043B300F0120CF8EAFEEBFF8C0C8D0D750E00A2CB
:1043C300AFE433F50FC2AF750800750900901D0601
:1043D3008020850A08850B09124463D2E4F0E508BE
:1043E30012445CD2E7F0E50A24FBF582E50B34FFC7
:1043F300F583E0F50AA3E0F50BE50A450B6043E519
:104403000A1251E4350BF583E0A2E750D9850A82FD
:10441300850B83A3A31210B4AC0CAD0DEEFAEFFB26
:1044230012320674021212B5E960BBE50845096051
:10443300A1E508240D12446F64017006124478D27A
:10444300E4F0E50FA2E092AFE508450960061230FB
:10445300F2750E01A90E02419012520E12447222FD
:1044630012446722E508241112446F22F582E435D1
:1044730009F583E022850882850983126CD7E0223F
:1044830074F2120CF874FE1213B3750C00750D0060
:10449300851882851983E4F0A3F0A2AF33F50AC22D
:1044A300AF901D06E0FEA3E0FF8035EE24FBF5820E
:1044B300EF34FF12730E780C1212F3EEFCEFFD7A59
:1044C300067B1D121D7874021212B5EEFCEFFDAAD5
:1044D30018AB19121D66AE08AF09901D0CE014F05D
:1044E300EE4F6027124583501DEE240BF8E43FF98D
:1044F30088828983E024FFF0A3E034FFF088828977
:1045030083125E6C60A51245748099E50AA2E0925D
:10451300AF901D0CE060319004DAE0640F60069008
:104523001D8DE070237AE47B1C1232EA90834E12D5
:1045330010B07AE47B1C1232DE74041212B58008C8
:1045430074F01257BF1230E6AA18AB19121D6C8A09
:104553000A8B0BAE0AAF0BEE4F601312301A1243E5
:10456300A9A2E28E828F83A350D674E980D4024835
:10457300398E0C8F0DEE24FBF582EF34FFF5832289
:104583001243ADA2E72274F7120CF8EAFEEBFF1216
:10459300301A1253CD1234F3E964019004F6700A11
:1045A300E02401F8A3E034008004E0F8A3E0F9126A
:1045B3005A1B125DC4901D0CE070219004DAE06474
:1045C3000F70197AE47B1C1232EA90834E1210B0FA
:1045D3007AE47B1C1232DE74041212B5A9A8C2AFAE
:1045E300901D0CE0041245EFA2E7800DF0E9A2E76D
:1045F300E433F8E922E508A2E092AF02585B74F7CE
:10460300120CF8EAFEEBFF124636F012301AEEFCFB
:10461300EFFD7A067B1D121D72A9A8C2AF901D0C77
:10462300123D6F9004DAE0640F700579081231B21D
:1046330002585B1243ADC2E42274F7120CF874EA19
:104643001213B3EAFEEBFF9004D3E06040851882B7
:104653008519837401F0121639E412470E121639C4
:10466300AA82AB83121F708E828F8312447EC0E0B6
:10467300740A121639D0E012690E740B121639AA95
:1046830082AB8312322AAA18AB1912267E74160241
:1046930047A774F7120CF8EAFEEBFF122FFCE9F9B7
:1046A30074DC69601E74DD69601974E469601474F4
:1046B300F369600F74DE69600A74DF69600574DB97
:1046C300697007EEFAEFFB1231B802585B74F71208
:1046D3000CF874EB1213B3EAFEEBFF85188285190D
:1046E30083740612470E121639AA82AB83121F7007
:1046F300126913740A121639AA82AB8312322AAAD8
:1047030018AB1912267E74150247A7F0EE2413FC8A
:10471300E43FFD74022274F7120CF874F71213B31A
:10472300EAFEEBFFEE242D1254556065124FE6AA04
:1047330018AB19121F7074081216397403F0900421
:10474300EF1210B41247971210B4900502E0F974F7
:1047530004121395EEFAEFFB12300274041212B531
:10476300E9F974DC69602374DD69601E74E46960CF
:104773001974F369601474DE69600F74DF69600A89
:1047830074E869600574DB697007EEFAEFFB1231B8
:10479300B8023EFEEE12479C22242BF582E43FF53D
:1047A300832274031212B502585B74F2120CF88A56
:1047B300088B09750C00750D00750AE7A2AFE43389
:1047C300F50BC2AF901D0680031245741248316089
:1047D3003512458350F3125452640170ECEE242FCA
:1047E300F582E43F1249E0E06870DE780C1212F3C0
:1047F300EEFCEFFD7A067B1D121D7874021212B5D2
:10480300901D0CE014F0E50BA2E092AFEE4F6013A5
:10481300EEFAEFFB12301A79F0EEFAEFFB1231B831
:10482300750A00A90AAA08AB091231B8800DE0FE87
:10483300A3E0FFEE4F2274021212B57F06020FA807
:1048430074F4120CF874F71213B3EAFEEBFF8E82C2
:104853008F83A3E064F370030248ED8E828F83A3FA
:10486300E064DF70030248ED8E828F83A3E064E887
:1048730060788E828F83A3E064DB606E12305CE924
:10488300F508705EEE240E12545560561248F71266
:1048930030A4EA4B604C7408121639124901121005
:1048A300B47508FF7509FF78081212F38E828F839F
:1048B300A3A3A3A3A3A3A3A3E0F9740412139512C0
:1048C300300274041212B5E9F50874F36508601236
:1048D30074DF6508600C74E86508600674DB6508BE
:1048E300700F8E828F83A3E508F0EEFAEFFB123090
:1048F30068023DA1EE240FFAE43FFB79092274021A
:104903001270D674FFF0A312490E2212491222121A
:104913005BD1A3A32274F5120CF88A088B097E00DD
:104923008A828B83A3A3A3A3A3A3123DAB40027EDE
:10493300E88A828B83A3A3A3A3A3A3A3A3A3A3E034
:10494300C3941040047EE880138A828B83A3A3A3BD
:10495300A3A3A3A3A3A3A3E0640F600A901D6AE02B
:10496300540870027EE8EA240BF582E43509124903
:10497300E0A3A3A3A3A3A3A3A3E0C398500CEA2497
:104983000B12446F640F60027EE89004F3E0F4704E
:1049930003A3E0F470027EEC7A237B00121DD29015
:1049A3001CED1260E9901CED125E6C602985088293
:1049B300850983A3A3A982AA8389088A09750A00A2
:1049C30078081212EF7C237D001260D6121D247426
:1049D300031212B580027E1AEEF9027277F583E0B4
:1049E300F88A828B83A3A32274F5120CF8EAFEEBF8
:1049F300FF8E828F83A3A3A3A3A3A3A3A3E0900407
:104A0300DA126FB99004F5126F9F9004D5126FBE3E
:104A1300901D8EF0F912191C901D8EE06018EE2483
:104A230004FAE43FFB7950121904EE2406FAE43F3A
:104A3300FB79E1121904901D8D123D9760047401F6
:104A430080027400901CEF126FA51212EF7C0B7D95
:104A5300007AF07B1C121D2474031212B5EE241885
:104A6300F508E43FF50978081212EF7C0B7D007A14
:104A7300FB7B1C02726F74F7120CF8EAFEEBFF8EDD
:104A8300828F83A3E070061260D61230628E828F0B
:104A930083742C1257BF1231C402585B74F7120C83
:104AA300F8EAFEEBFF901CED125E6C600D1260D60F
:104AB300901CEDE4F0A3F0121DD88E828F8374084E
:104AC3001257BF12267E02585B74F6120CF8901D23
:104AD3008DE06013901CEFE0700D124AED1230145C
:104AE300EA4B60031230F8026C199004D5E0FB9096
:104AF30004F5E0FA9004DAE0F92274F4120CF87485
:104B0300E71213B3EAFEEBFF750B018E828F83A3CB
:104B1300A3A3A3A3A3A3E0A2E25068EE242BF582F0
:104B2300E43F12773B124BBB123020E97055908162
:104B3300DDE064017005750B008048124BC312124F
:104B4300EF7C0B7D00741112138D121D247403125C
:104B530012B51231FAE9FA740E121385880889091D
:104B630078081212F375083075090078081212F3E9
:104B73001247971210B41268AF79011232187406F3
:104B83001212B5851882851983741012470E1216F6
:104B930039AA82AB83121F641247971268DB740B26
:104BA300121639125DC4740D121639E50B12563202
:104BB30012267E7419023DA3EE2413FAE43FFB226E
:104BC300EE2408126FAD22C082C083901D8EE06078
:104BD3000312326C0255A1C082C083901D8574CC30
:104BE300F0A3741CF0A374D0F0A3741CF0A374DCC2
:104BF300F0A3741CF0901EA67440F0A3743AF090D6
:104C03001D6F74F6F0A3742FF0901D11742CF0A394
:104C13007430F0901D137432F0A37430F0901D6A59
:104C2300E044028001E4F00255A1C082C083EAFCA3
:104C3300EBFD7903025C3DC082C083EAFCEBFD79A6
:104C430005025C3DC082C0837908026DAAC082C0A0
:104C53008374FE1213B3901D1974E0F0A37430F043
:104C6300901D1B74DAF0A37430F0800D7A067B1D5F
:104C7300121D6C1256281231E8901D06125E6C70DC
:104C8300EB901D08125E6C600F7A087B1D121D6C81
:104C93001256281231E880E9901D06E4F0A3F09043
:104CA3001D0C123D7A7402800274111212B5025562
:104CB300A174F6120CF8E9FF742129F582E4343D5E
:104CC300F583E493FEFA7B00121D42EA4B6011EA7E
:104CD3002E125DBA8A828B83A3A3A3A3E4F0802C54
:104CE3007A027B00121D42EA4B601D74002FF5828D
:104CF300E4343DF583E4938A828B83F0A3741AF042
:104D0300901D65E0F9121D4E7A007B00026C19E9D3
:104D1300FC740629F8EAA2E0501EE875F00A84E55F
:104D2300F0F96014740A28C399F8E9C394054004A0
:104D3300740A28F8740B28F8ECC3941340047A140B
:104D430080027A06EA2879002409F85001097A0AD0
:104D53007B00120979E8F902129DC082C083901D7D
:104D63006AE05402600A122684E960047901800231
:104D730079000255A1C082C083901D6AE05402608D
:104D830016901D0CE0700C125E69600BE0C81253A4
:104D93000650047901800279000255A1C082C083C4
:104DA3009081DAE0F8901D0EE0C3985005121D4281
:104DB30080047A007B000255A1C082C0831231E8CF
:104DC30079000255A174F7120CF874FE1213B3851F
:104DD3001882851983EAF0A3EB124F37A3A3A3A389
:104DE300A3E0600A14606024FE6069024EB8900478
:104DF300DAE0640F60181231BEE9701285188285FB
:104E030019831260D9901D151253D01234F39005F3
:104E130002E0C0E0851882851983125B9BD0E01203
:104E23004F3774141270D212773D7A087B1D121D0E
:104E330066A8A8C2AF901D0EE0041260EF7920129D
:104E430031B274020247A7851882851983126CDF79
:104E5300741580D0851882851983124F1AA3A3E095
:104E63006053851882851983E02402F8A3E0340097
:104E7300F988828983127510E0C0E085188285194C
:104E830083E0FCA3E0CC2406F582E43CF583D0E088
:104E930012691B888289831260E9851882851983C8
:104EA3001252028518828519836013124F1F600501
:104EB300124F274043AA18AB191231E88084124FCE
:104EC3001F60F2124F27501C125316FA8518828561
:104ED3001983124F21F87436125DB5343DF583E41E
:104EE300936A6014851882851983124F1F640870B2
:104EF300C4125316640870BD12531614124F3F2484
:104F03000AC0E08518828519831253D0D0E0124F6E
:104F13003F04024E27E0F8A3125BE822E0F8A3E087
:104F2300124F46228518828519831268EC124F4767
:104F3300C3940A22124F51F583888222124F5112D1
:104F43004F4622C82406F582E438F583E022127026
:104F5300D6E0F8A3E022C082C083901D1D125E6CD0
:104F63006008126CE01234F3800279000255A174D8
:104F7300F7120CF8EAFEEBFF123F3D7401F0EE244A
:104F830030F582E43FF583126649123F172432124B
:104F93005455C0E0EE2413F582E43FF583D0E0F0EE
:104FA300EE2433125455C0E0EE2414F582E43FF5A9
:104FB30083D0E0F0EE242CF582E43FF5831210B4A5
:104FC300124FE6EE242E125455F9123212740212C5
:104FD30012B5E9F5087007EEFAEFFB1230F8A908ED
:104FE30002585BEE2423FCE43FFD22C082C08312FF
:104FF30031BEE960047920800279010255A1C082A3
:10500300C083EA1251E41250A5D2E0024C29C082B7
:10501300C08312509F640170111250AA400C8A82FF
:105023008B83A3E0F91231B8806FEA24101250A2E7
:10503300A2E650128A828B83A3E0F9901D171253C4
:10504300D01234F3805312509F6401700D1250AA92
:1050530050088A828B83743080368A828B83A3E0E4
:10506300641B8A828B83700474228024A3E0700DF6
:1050730012509FF8740B125DB5343D800B12509F94
:10508300F87400125DB5343DF583E4938A828B8313
:10509300F0901D65E0F9121D4E0255A1EA240DF5AD
:1050A30082E43BF583E022EA12520E3BF583E0A251
:1050B300E32274F7120CF8E9FE125E6970030251E1
:1050C300DBEE6011741B6E7013E0C81251DE6405D1
:1050D30070030251A6126CCFE40251AA74E96E70F8
:1050E300621251FA700B12268AE96005125214609B
:1050F3006279EE121886901D0F1251F7901D0F6002
:105103003B125217901D0F700B1251F714F0121A25
:105113003C0251DB125202C2E71253221251DE64E7
:1051230003700C1268E51251E4124F4CD2E2F0798D
:10513300ED1218861251EA1234F38075126CD27490
:10514300E9806474E16E703E12268AE9605512525A
:105153001470509004FCE0C0E01268E52412F5825C
:10516300E438F583D0E0F09004EBE0C0E0901D0F4D
:10517300124F18124F18D0E0F09004EBE004F079CE
:1051830001121A248052741C6E7018901D0F126045
:10519300D9901D1F1253D01234F3901D0FE4F0A3C6
:1051A300F08035126CCFEEF0901D0F1260D91230E3
:1051B300E61268E51268B7E054806010900502E0DB
:1051C300F9121940900501E0F9121934901D0FE40A
:1051D300F0A3F079101231B202585B240D124F493B
:1051E300222411F582E422901D0F1260DD901D131D
:1051F300126CD922E0F8A3E0C82412124F4922E02E
:10520300F8A3E0C812520E124F4C222410F582E488
:1052130022901D0F1268EC1268BBE054042274F450
:10522300120CF8750A00750B00A2AFE433FFC2AF8E
:10523300125E6960030252DE1253CD1234F3E94465
:1052430010F8901D06800985080A85090B1252F98A
:1052530012530E70030252DE124463586870E878EA
:105263000A1212F3AC08AD097A067B1D121D78747D
:10527300021212B5901D0FE508F0A3E5091253229F
:10528300125306405D901D0DE014F0EFA2E092AFC3
:10529300901D0FE0240EF8A3E03400F98808890973
:1052A3008882F5831260D9901D0F12531CF91230B6
:1052B300AAE9901D0AF012532AE05480901D0F6052
:1052C300261268E82413124F49F91219401268E5AF
:1052D3002414124F49F91219348018EFA2E092AF47
:1052E3008011901D0C80A1125202A2E1B3E433F9A4
:1052F300121A24023DA6E50824FBF582E50934FFD2
:10530300F583222411124F49A2E722127314E508F0
:10531300450922851882851983124165A3E022F08D
:10532300901D0F1268EC22A3E4F08508828509839F
:105333002274F7120CF8EAFEEBFF1231E2EE2410AE
:10534300125455A2E3400C1254526401700590812B
:10535300D880039081D9E0F9EEFCEFFD7A067B1D3E
:10536300121D7EE96046EEFAEFFB901D191253D031
:105373001234F3EE240E12545554047020A8A8C21C
:10538300AF901D0DE0041260CFFAE8A2E792AF12CE
:1053930053BFA3E0540170211230F2801CEEFAEFE8
:1053A300FB901D111253D01234F3800D8E828F8324
:1053B300A374F11257BF1230E602585B1253C32293
:1053C300EE240EF582E43FF58322901D1B126CD967
:1053D30022C082C0831230F20255A174F7120CF876
:1053E300EAFEEBFF7900901D6AE05402700CEE2494
:1053F300301254555404600279E8901D6AE05460F9
:10540300700CEE24301254555402600279E88E82F7
:105413008F83A3A3A3A3E0F89081DEE0C398500297
:1054230079E8EE242E125455700CEE242B125455A9
:10543300700479F5800BE970051230D4E9F9E9605D
:1054430007EEFAEFFB1231B802585B34FFF509EEB1
:10545300240DF582E43FF583E022C082C0838A8273
:105463008B83740DF012267E0255A1C082C0838AFD
:10547300828B83E4F0A3F0EA24301250A254049008
:1054830081D87012E0F8901D0DE0C398401279F1B5
:105493001231B80255A1E0F8901D0CE0C39850EE0C
:1054A300901D65E0F9121D4E80E974F6120CF8E9BF
:1054B300FE244CFAE43400FB121D42EA4B6012EE68
:1054C3008A828B83A3A3A3A3F0EA244C125DBA8040
:1054D300047A007B00026C19C082C083901D217482
:1054E30040F0A37431F0A37470F0A37431F0A3748B
:1054F30046F0A37431F0A3744CF0A37431F0A37499
:105503006AF0A37431F0A3745EF0A37431F0A37452
:1055130058F0A37431F0A37476F0A37431F0A3743C
:105523007CF0A37431F0A37482F0A37431F0A374FC
:105533008EF0A37431F0A37452F0A37431F0A3740A
:105543003AF0A37431F0A37434F0A37431F0901DD6
:105553003D7464F0A37431F0A37488F0A37431F044
:10556300A374A2F0A37432F0A37494F0A37431F083
:10557300A3749AF0A37431F0901D61E4F0901D645C
:10558300F0901D4D1255987402F0901D56125598C7
:105593007401024C2974B2F0A37431F0A322D083B6
:1055A300D08202129D74F5120CF874F11213B385B4
:1055B30018828519837402F07401121639E9F060B8
:1055C300047AFF7BFF74021216391260E9750859D9
:1055D30075091D750A0078081212EF7C0B7D0074A3
:1055E30007121639AA82AB83121D2474031212B553
:1055F300AA18AB1912267E740F02727474F7120C78
:10560300F874FD1213B3851882851983740AF07434
:1056130001121639E9F07402121639EA12563212DF
:10562300267E0247A5851882851983EAF0A3EBF04D
:10563300AA18AB192274F6120CF874F71213B3EA12
:10564300FEEBFF125688123F3574021257B0AA18A8
:10565300AB19121F64EE242E123F0324301266B6D8
:105663001212F3740212139579831A1AEFFB123292
:105673001274021212B5E9F5087007EEFAEFFB1285
:1056830030F8026C121253C374012274F0120CF836
:1056930012715D1215CA7808790C120B91780812F1
:1056A30012EB7A507B1D02418874F4120CF874C615
:1056B3001213B39004DAE0640F6010851882851921
:1056C30083742E1256321231C480277A477B1D12FF
:1056D30032EA123DB412098188088909E4F50AF512
:1056E3000B78081212EB7A477B1D1232DE74041218
:1056F30012B5743A023DA374F5120CF8EAFEEBFFFF
:105703008E828F83A3E0F86003025799EE242D1253
:10571300545564026007E06403600278E8EE2423D2
:10572300F582E43FF583123DAD400478E8806AE8F2
:105733007064EE2423FAE43FFB79E1121904EE24AA
:105743002EFAE43FFB7950121904EE242D1254551E
:105753006402700E1268A51268DB9004E9125DC43E
:1057630080129004E974FEF0A3041257B07AE07B30
:1057730004121F70EE2418124BC61212EF7C0B7D1D
:10578300007A597B1D121D2474031212B5EEFAEF31
:10579300FB12312EE9F8E86011E88E828F83A312A1
:1057A3006B0774171257BF1231C4027277F0EE24DD
:1057B30025FCE43FFD228E828F837429F0EEFAEFFD
:1057C300FB2274F6120CF874F71213B3901D64E005
:1057D300703B7401F0F91219EEAA18AB191231F4E7
:1057E30075085975091D78081212F37508017509B2
:1057F3000078081212F39004EF1210B47406121317
:10580300957A03790512321874061212B5026C14D4
:1058130074F7120CF8EAFEEBFF79011219F48E8289
:105823008F83E064207004A374EBF0901D64E0A206
:10583300E25003C2E2F0E0A2E15008125A5D1231D5
:1058430028800C8E828F83742A1257BF1231C48032
:1058530007EEFAEFFB1232607F01020FA874F41215
:105863000CF874FE1213B3EAFEEBFF79011219F47C
:105873007A477B1D1232EA7A507B1D1232EA125BA1
:10588300A7851882851983125BDBE0F50B700FAADD
:1058930018AB197953121904127304121904124B19
:1058A300C31212EF7C0B7D007A597B1D121D2474E9
:1058B300031212B58518828519831260D9A90B12B8
:1058C3003122901D64E0A2E1500C7A008E828F8316
:1058D300A3E0F9123128901D64E4F07402023DA3A1
:1058E30074F7120CF8EAFEEBFF8E828F83A374EB3E
:1058F300F0901D64E0A2E150077A0079EB123128A1
:10590300EEFAEFFB12315E02585B74F7120CF8EA01
:10591300FEEBFF79011219F47A477B1D1232EA7A02
:10592300507B1D1232EA901D61E4F0901D64F07A01
:10593300FF7BFF8E828F83A3E0F912312202585B33
:1059430074F7120CF8EAFEEBFF1231580258547444
:10595300F7120CF8EAFEEBFF79011219F48E828F2D
:1059630083A3A3A3A3E060047400800274EB125921
:10597300A45003C2E2F0E0A2E15008125AA6123189
:10598300288014A2E050108E828F83742AF0A374AF
:10599300EB1257BF1231C4EEFAEFFB12310A025871
:1059A3005B8E828F83A3F0901D64E0A2E22274F6E3
:1059B300120CF8EAFEEBFF901D64E0D2E1F07901EE
:1059C3001219EE8E828F83A3E0703C1231FAE9FA4A
:1059D300EE240DF508E43FF50978081212F3750873
:1059E3000175090078081212F3125A1B1210B4EE53
:1059F3002402FCE43FFD790512321874061212B535
:105A0300E98E828F83A3F08E828F83A3E060067A70
:105A130000F9123128026C19125A1F22EE240BF5D9
:105A230082E43FF5832274F7120CF8EAFEEBFF7968
:105A3300011219F48E828F83E064207004A374EB47
:105A4300F0901D64E0A2E25003C2E2F0E0A2E15054
:105A530006125A5D12312802585BC2E1F07A008EB9
:105A6300828F83A3E0F92274F7120CF8EAFEEBFFAE
:105A730079011219F47A477B1D1232EA8E828F83E1
:105A8300A3A3A3A3E060047400800274EB1259A4DF
:105A93005003C2E2F0E0A2E15006125AA6123128E6
:105AA30002599AC2E112490EA3E0A2E4E433FA8E4A
:105AB300828F83A3E0F92274F7120CF8EAFEEBFF5E
:105AC30079011219F48E828F83A374EB1259A950B2
:105AD30003C2E2F0E0A2E15006125A5D123128023D
:105AE300585B74F7120CF8EAFEEBFF7A477B1D1242
:105AF30032EAEEFAEFFB12318202585474F7120CB9
:105B0300F8EAFEEBFF7A477B1D1232EAEEFAEFFB6F
